:100000000C942A000C9447000C9447000C94470071
:100010000C9447000C9447000C9447000C94470044
:100020000C9447000C9447000C9447000C94470034
:100030000C9447000C9447000C9447000C94470024
:100040000C9447000C9447000C9447000C94470014
:100050000C94470011241FBECFE5D8E0DEBFCDBF12
:1000600010E0A0E6B0E0EEE5FBE002C005900D92E6
:10007000AC36B107D9F720E0ACE6B0E001C01D9284
:10008000AD36B207E1F70E9442020C94AD050C9424
:100090000000840F911DFC0160830895840F911D61
:1000A000FC0160A70895805B9F4FFC016083089569
:1000B0000F931F93CF93DF93EC010E949D028C015D
:1000C000CE0188960E949D02BC01FE01E05BFF4FBD
:1000D00090819B32C1F09F3269F09A32E1F4069F21
:1000E000C001079F900D169F900D112431969183AA
:1000F000808318C0C8010E947502FE01EF5AFF4FAD
:10010000718360830FC0600F711FFE01EF5AFF4FB4
:100110007183608307C0061B170BFE01EF5AFF4F68
:1001200011830083CE018D5A9F4FCF5ADF4F298113
:100130002F9328812F9328E630E03F932F939F93AE
:100140008F930E94C3020F900F900F900F900F900B
:100150000F90DF91CF911F910F910895FC011282B2
:10016000108211820895EF92FF920F931F93CF9305
:100170007C018A016D3321F0FA01C281C23041F461
:10018000C7010E945800C8010E94AE00C1E02DC006
:100190006A3231F06F3221F06B3211F06D3249F476
:1001A000C7010E945300F80182818F5F8283C0E003
:1001B0001CC0C1110DC0FA0140810E944900F80124
:1001C00040814F5F408360E0C7010E9449000DC03D
:1001D000FA0141810E944E00F80141814F5F418345
:1001E00060E0C7010E944E00C0E08C2FCF911F91AC
:1001F0000F91FF90EF90089512BA81B3807F81BB79
:1002000081B3806F81BB8FEF82BB0895A0E065C092
:1002100082B3806F82BB22B3EA2FF0E0E05AFF4F37
:1002200081E090E0008002C0880F991F0A94E2F7F5
:100230008095822382BB20E04CC0E22FF0E0EC5995
:10024000FF4F3081632F41E050E0032E02C0440F86
:10025000551F0A94E2F780B390E08423952302C0EF
:10026000959587953A95E2F7892B91F580B390E0C3
:1002700084239523062E02C0959587950A94E2F76C
:10028000892BA1F3A13061F018F0A23089F018C0D9
:10029000222341F1213041F1223041F581E30895DB
:1002A000222331F1213031F1223031F582E30895FA
:1002B000222321F1213021F1223021F583E3089519
:1002C000222311F1213011F1223011F58DE2089530
:1002D0002F5F243008F4B1CFAF5FA43008F498CF7B
:1002E00081E4089587E3089584E3089583E40895FD
:1002F00088E3089585E3089580E3089589E30895E8
:1003000086E308958DE308958FE208958AE20895C3
:100310008BE2089588B3886088BB8FEC97E00197E3
:10032000F1F700C0000088B3877F88BB089598B3B9
:100330009D7F98BB8BBB0E948A01089581E00E943B
:10034000970110926C00089582E00E9497018FE956
:100350009FE00197F1F700C0000010926C00089533
:100360000E9497018FEC97E00197F1F700C0000021
:1003700008950E9497018FEC97E00197F1F700C074
:10038000000008950E9497018FEC97E00197F1F724
:1003900000C000000895CF93DF93EC0188B3817F04
:1003A00088BB87B38E6087BB1BBA8FEF8ABB8FE396
:1003B0009CE90197F1F700C000000E94A4018A8126
:1003C0000E94C20189810E94B90188810E94B00106
:1003D0000E949E010E94A401DF91CF910895CF93C6
:1003E000823080F4603180F4811102C0C0E001C02D
:1003F000C0E4C60F8C2F80680E949701C0936C00E8
:1004000081E003C080E001C080E0CF910895809139
:100410006C008F3029F460E081E00E94EF010895C4
:100420008F5F80936C00089598B3926098BB8BBBEC
:100430000E948A010E9407020895CF93DF93EC0186
:1004400003C021960E94140288818111FACFDF91A6
:10045000CF910895CF93DF9300D01F92CDB7DEB731
:100460008FE08A8384E089838CE38B83CE010196BD
:100470000E94CB010E94FC000F900F900F90DF9123
:10048000CF910895CF93DF93CDB7DEB7CE51D14052
:100490000FB6F894DEBF0FBECDBF0E942A02CE0178
:1004A000845E9E4F0E94AE000E940601182F813488
:1004B000D9F3833441F40E949E01CE01845E9E4FA5
:1004C0000E94AE00F1CF0E941402AE01445E5E4F66
:1004D000612FCE0101960E94B300882329F3CE013B
:1004E0008C5A9F4F0E941D02DFCF97FB072E16F4F8
:1004F000009407D077FD09D00E94890207FC05D03F
:100500003EF4909581959F4F0895709561957F4F2A
:100510000895AA1BBB1B51E107C0AA1FBB1FA6174A
:10052000B70710F0A61BB70B881F991F5A95A9F79C
:1005300080959095BC01CD010895FC0188279927ED
:10054000E89421912032E9F3293010F02E30C8F3DD
:100550002B3241F02D3239F4689404C00E94BB0262
:10056000820F911D219120532A30C0F31EF49095E3
:1005700081959F4F08957AE0979F902D879F802DBA
:10058000910D11240895AEE0B0E0E9ECF2E00C9496
:1005900084050D891E8986E08C831A8309838FEF79
:1005A0009FE79E838D83AE01475E5F4F6F89788D95
:1005B000CE0101960E94E502EF81F885E00FF11F60
:1005C00010822E96E4E00C94A005ABE0B0E0EBEED8
:1005D000F2E00C9476056C017B018A01FC01178224
:1005E0001682838181FFCCC1CE0101963C01F601C8
:1005F0009381F70193FD859193FF81917F0188237A
:1006000009F4BAC1853239F493FD859193FF819144
:100610007F01853229F4B60190E00E94DC04E7CF27
:10062000912C212C312CFFE1F315D8F08B3279F08D
:1006300038F4803279F08332A1F4232D20611DC07B
:100640008D3261F0803369F4232D216016C0832D33
:100650008260382EE32DE4603E2E2AC0F32DF86030
:100660001DC037FC2DC020ED280F2A3040F08E32FF
:10067000B9F436FC81C1232D2064322E19C036FE18
:1006800006C08AE0989E200D1124922E11C0EAE047
:100690002E9E200D1124222EF32DF0623F2E08C035
:1006A0008C3621F4832D8068382E02C0883641F4C0
:1006B000F70193FD859193FF81917F018111B3CF64
:1006C000982F9F7D9554933028F40C5F1F4F9FE324
:1006D00099830DC0833631F0833771F0833509F08B
:1006E00059C021C0F801808189830E5F1F4F882483
:1006F0008394912C530113C02801F2E04F0E511C3A
:10070000F801A080B18036FE03C0692D70E002C000
:100710006FEF7FEFC5010E94D1044C018201F32DE0
:10072000FF773F2E16C0280122E0420E511CF8012F
:10073000A080B18036FE03C0692D70E002C06FEF6B
:100740007FEFC5010E94C6044C01F32DF0683F2ED7
:10075000820133FC1BC0822D90E088169906B0F40C
:10076000B60180E290E00E94DC042A94F4CFF50107
:1007700037FC859137FE81915F01B60190E00E94C0
:10078000DC0421102A9421E0821A9108811491043A
:1007900071F7E8C0843611F0893641F5F80137FE6B
:1007A00007C060817181828193810C5F1F4F08C0F7
:1007B00060817181072E000C880B990B0E5F1F4F13
:1007C000F32DFF763F2E97FF09C090958095709589
:1007D00061957F4F8F4F9F4FF0683F2E2AE030E0AA
:1007E000A3010E941805882E861845C0853731F46C
:1007F000232D2F7EB22E2AE030E025C0932D997F45
:10080000B92E8F36C1F018F4883579F0B5C080372D
:1008100019F0883721F0B0C0E92FE061BE2EB4FE98
:100820000DC0FB2DF460BF2E09C034FE0AC0292F75
:100830002660B22E06C028E030E005C020E130E09E
:1008400002C020E132E0F801B7FE07C0608171818B
:10085000828193810C5F1F4F06C06081718180E0AF
:1008600090E00E5F1F4FA3010E941805882E861886
:10087000FB2DFF773F2E36FE0DC0232D2E7FA22E9F
:10088000891458F434FE0BC032FC09C0832D8E7ECF
:10089000A82E05C0B82CA32C03C0B82C01C0B92CBD
:1008A000A4FE0FC0FE01E80DF11D8081803321F40C
:1008B0009A2D997EA92E09C0A2FE06C0B394B394C6
:1008C00004C08A2D867809F0B394A3FC11C0A0FE61
:1008D00006C0B21488F4280C922C9B180EC0B214D7
:1008E00060F4B60180E290E00E94DC04B394F7CF9C
:1008F000B21418F42B1802C0982C212CA4FE10C09E
:10090000B60180E390E00E94DC04A2FE17C0A1FCC7
:1009100003C088E790E002C088E590E0B6010CC013
:100920008A2D867859F0A1FE02C08BE201C080E2D8
:10093000A7FC8DE2B60190E00E94DC04891438F433
:10094000B60180E390E00E94DC049A94F7CF8A9489
:10095000F301E80DF11D8081B60190E00E94DC04F6
:100960008110F5CF222009F442CEB60180E290E05A
:100970000E94DC042A94F6CFF6018681978102C09A
:100980008FEF9FEF2B96E2E10C949205FC0105900E
:10099000615070400110D8F7809590958E0F9F1F81
:1009A0000895FC016150704001900110D8F78095C6
:1009B00090958E0F9F1F08950F931F93CF93DF93F2
:1009C000FB01238121FD03C08FEF9FEF2CC022FF8D
:1009D00016C046815781248135814217530744F45C
:1009E000A081B1819D012F5F3F4F318320838C9384
:1009F000268137812F5F3F4F3783268314C08B01B9
:100A0000EC01FB010084F185E02D0995892BE1F6CD
:100A1000D80116968D919C911797019617969C93E5
:100A20008E931697CE01DF91CF911F910F9108956C
:100A3000FA01AA27283051F1203181F1E8946F930F
:100A40006E7F6E5F7F4F8F4F9F4FAF4FB1E03ED0B5
:100A5000B4E03CD0670F781F891F9A1FA11D680F53
:100A6000791F8A1F911DA11D6A0F711D811D911D86
:100A7000A11D20D009F468943F912AE0269F1124FB
:100A80003019305D3193DEF6CF010895462F47705F
:100A9000405D4193B3E00FD0C9F7F6CF462F4F70BA
:100AA000405D4A3318F0495D31FD4052419302D018
:100AB000A9F7EACFB4E0A6959795879577956795BE
:100AC000BA95C9F700976105710508959B01AC01BE
:100AD0000A2E06945795479537952795BA95C9F7E5
:100AE000620F731F841F951FA01D08952F923F92C0
:100AF0004F925F926F927F928F929F92AF92BF922E
:100B0000CF92DF92EF92FF920F931F93CF93DF93D9
:100B1000CDB7DEB7CA1BDB0B0FB6F894DEBF0FBE36
:100B2000CDBF09942A88398848885F846E847D8483
:100B30008C849B84AA84B984C884DF80EE80FD8085
:100B40000C811B81AA81B981CE0FD11D0FB6F894FB
:0E0B5000DEBF0FBECDBFED010895F894FFCFBC
:0C0B5E00040506070001020325640000E6
:00000001FF
